{
  "_format": "hh-sol-artifact-1",
  "contractName": "NFT",
  "sourceName": "contracts/ERC721Contract.sol",
  "abi": [
    {
      "inputs": [
        {
          "internalType": "string",
          "name": "name",
          "type": "string"
        },
        {
          "internalType": "string",
          "name": "symbol",
          "type": "string"
        },
        {
          "internalType": "string",
          "name": "initBaseURI",
          "type": "string"
        },
        {
          "internalType": "string",
          "name": "initNotRevealedUri",
          "type": "string"
        }
      ],
      "stateMutability": "nonpayable",
      "type": "constructor"
    },
    {
      "anonymous": false,
      "inputs": [
        {
          "indexed": true,
          "internalType": "address",
          "name": "owner",
          "type": "address"
        },
        {
          "indexed": true,
          "internalType": "address",
          "name": "approved",
          "type": "address"
        },
        {
          "indexed": true,
          "internalType": "uint256",
          "name": "tokenId",
          "type": "uint256"
        }
      ],
      "name": "Approval",
      "type": "event"
    },
    {
      "anonymous": false,
      "inputs": [
        {
          "indexed": true,
          "internalType": "address",
          "name": "owner",
          "type": "address"
        },
        {
          "indexed": true,
          "internalType": "address",
          "name": "operator",
          "type": "address"
        },
        {
          "indexed": false,
          "internalType": "bool",
          "name": "approved",
          "type": "bool"
        }
      ],
      "name": "ApprovalForAll",
      "type": "event"
    },
    {
      "anonymous": false,
      "inputs": [
        {
          "indexed": false,
          "internalType": "string",
          "name": "newBaseExtension",
          "type": "string"
        }
      ],
      "name": "BaseExtensionUpdated",
      "type": "event"
    },
    {
      "anonymous": false,
      "inputs": [
        {
          "indexed": false,
          "internalType": "string",
          "name": "newBaseURI",
          "type": "string"
        }
      ],
      "name": "BaseURIUpdated",
      "type": "event"
    },
    {
      "anonymous": false,
      "inputs": [
        {
          "indexed": true,
          "internalType": "address",
          "name": "burner",
          "type": "address"
        },
        {
          "indexed": false,
          "internalType": "uint256[]",
          "name": "tokenIds",
          "type": "uint256[]"
        }
      ],
      "name": "Burn",
      "type": "event"
    },
    {
      "anonymous": false,
      "inputs": [
        {
          "indexed": false,
          "internalType": "uint256",
          "name": "newCost",
          "type": "uint256"
        }
      ],
      "name": "CostUpdated",
      "type": "event"
    },
    {
      "anonymous": false,
      "inputs": [
        {
          "indexed": false,
          "internalType": "uint256",
          "name": "newMaxMintAmount",
          "type": "uint256"
        }
      ],
      "name": "MaxMintAmountUpdated",
      "type": "event"
    },
    {
      "anonymous": false,
      "inputs": [
        {
          "indexed": false,
          "internalType": "string",
          "name": "newMetadataURI",
          "type": "string"
        }
      ],
      "name": "MetadataURIUpdated",
      "type": "event"
    },
    {
      "anonymous": false,
      "inputs": [
        {
          "indexed": true,
          "internalType": "address",
          "name": "minter",
          "type": "address"
        },
        {
          "indexed": false,
          "internalType": "uint256[]",
          "name": "tokenIds",
          "type": "uint256[]"
        }
      ],
      "name": "Mint",
      "type": "event"
    },
    {
      "anonymous": false,
      "inputs": [
        {
          "indexed": true,
          "internalType": "address",
          "name": "minter",
          "type": "address"
        },
        {
          "indexed": true,
          "internalType": "address",
          "name": "recipient",
          "type": "address"
        },
        {
          "indexed": false,
          "internalType": "uint256[]",
          "name": "tokenIds",
          "type": "uint256[]"
        }
      ],
      "name": "MintFor",
      "type": "event"
    },
    {
      "anonymous": false,
      "inputs": [
        {
          "indexed": false,
          "internalType": "string",
          "name": "newNotRevealedURI",
          "type": "string"
        }
      ],
      "name": "NotRevealedURIUpdated",
      "type": "event"
    },
    {
      "anonymous": false,
      "inputs": [
        {
          "indexed": true,
          "internalType": "address",
          "name": "previousOwner",
          "type": "address"
        },
        {
          "indexed": true,
          "internalType": "address",
          "name": "newOwner",
          "type": "address"
        }
      ],
      "name": "OwnershipTransferred",
      "type": "event"
    },
    {
      "anonymous": false,
      "inputs": [],
      "name": "Reveal",
      "type": "event"
    },
    {
      "anonymous": false,
      "inputs": [
        {
          "indexed": true,
          "internalType": "address",
          "name": "from",
          "type": "address"
        },
        {
          "indexed": true,
          "internalType": "address",
          "name": "to",
          "type": "address"
        },
        {
          "indexed": true,
          "internalType": "uint256",
          "name": "tokenId",
          "type": "uint256"
        }
      ],
      "name": "Transfer",
      "type": "event"
    },
    {
      "anonymous": false,
      "inputs": [
        {
          "indexed": true,
          "internalType": "address",
          "name": "recipient",
          "type": "address"
        },
        {
          "indexed": false,
          "internalType": "uint256",
          "name": "amount",
          "type": "uint256"
        }
      ],
      "name": "Withdraw",
      "type": "event"
    },
    {
      "inputs": [
        {
          "internalType": "address",
          "name": "to",
          "type": "address"
        },
        {
          "internalType": "uint256",
          "name": "tokenId",
          "type": "uint256"
        }
      ],
      "name": "approve",
      "outputs": [],
      "stateMutability": "nonpayable",
      "type": "function"
    },
    {
      "inputs": [
        {
          "internalType": "address",
          "name": "owner",
          "type": "address"
        }
      ],
      "name": "balanceOf",
      "outputs": [
        {
          "internalType": "uint256",
          "name": "",
          "type": "uint256"
        }
      ],
      "stateMutability": "view",
      "type": "function"
    },
    {
      "inputs": [],
      "name": "baseURI",
      "outputs": [
        {
          "internalType": "string",
          "name": "",
          "type": "string"
        }
      ],
      "stateMutability": "view",
      "type": "function"
    },
    {
      "inputs": [
        {
          "internalType": "uint256",
          "name": "tokenId",
          "type": "uint256"
        }
      ],
      "name": "burn",
      "outputs": [],
      "stateMutability": "nonpayable",
      "type": "function"
    },
    {
      "inputs": [
        {
          "internalType": "uint256[]",
          "name": "tokenIds",
          "type": "uint256[]"
        }
      ],
      "name": "burnBatch",
      "outputs": [],
      "stateMutability": "nonpayable",
      "type": "function"
    },
    {
      "inputs": [
        {
          "internalType": "uint256",
          "name": "tokenId",
          "type": "uint256"
        }
      ],
      "name": "getApproved",
      "outputs": [
        {
          "internalType": "address",
          "name": "",
          "type": "address"
        }
      ],
      "stateMutability": "view",
      "type": "function"
    },
    {
      "inputs": [
        {
          "internalType": "address",
          "name": "owner",
          "type": "address"
        },
        {
          "internalType": "address",
          "name": "operator",
          "type": "address"
        }
      ],
      "name": "isApprovedForAll",
      "outputs": [
        {
          "internalType": "bool",
          "name": "",
          "type": "bool"
        }
      ],
      "stateMutability": "view",
      "type": "function"
    },
    {
      "inputs": [],
      "name": "metadataURI",
      "outputs": [
        {
          "internalType": "string",
          "name": "",
          "type": "string"
        }
      ],
      "stateMutability": "view",
      "type": "function"
    },
    {
      "inputs": [
        {
          "internalType": "uint256",
          "name": "mintAmount",
          "type": "uint256"
        }
      ],
      "name": "mint",
      "outputs": [],
      "stateMutability": "payable",
      "type": "function"
    },
    {
      "inputs": [
        {
          "internalType": "address",
          "name": "recipient",
          "type": "address"
        },
        {
          "internalType": "uint256",
          "name": "mintAmount",
          "type": "uint256"
        }
      ],
      "name": "mintFor",
      "outputs": [],
      "stateMutability": "nonpayable",
      "type": "function"
    },
    {
      "inputs": [],
      "name": "name",
      "outputs": [
        {
          "internalType": "string",
          "name": "",
          "type": "string"
        }
      ],
      "stateMutability": "view",
      "type": "function"
    },
    {
      "inputs": [],
      "name": "notRevealedURI",
      "outputs": [
        {
          "internalType": "string",
          "name": "",
          "type": "string"
        }
      ],
      "stateMutability": "view",
      "type": "function"
    },
    {
      "inputs": [
        {
          "internalType": "address",
          "name": "",
          "type": "address"
        },
        {
          "internalType": "address",
          "name": "",
          "type": "address"
        },
        {
          "internalType": "uint256",
          "name": "",
          "type": "uint256"
        },
        {
          "internalType": "bytes",
          "name": "",
          "type": "bytes"
        }
      ],
      "name": "onERC721Received",
      "outputs": [
        {
          "internalType": "bytes4",
          "name": "",
          "type": "bytes4"
        }
      ],
      "stateMutability": "nonpayable",
      "type": "function"
    },
    {
      "inputs": [],
      "name": "owner",
      "outputs": [
        {
          "internalType": "address",
          "name": "",
          "type": "address"
        }
      ],
      "stateMutability": "view",
      "type": "function"
    },
    {
      "inputs": [
        {
          "internalType": "uint256",
          "name": "tokenId",
          "type": "uint256"
        }
      ],
      "name": "ownerOf",
      "outputs": [
        {
          "internalType": "address",
          "name": "",
          "type": "address"
        }
      ],
      "stateMutability": "view",
      "type": "function"
    },
    {
      "inputs": [
        {
          "internalType": "bool",
          "name": "paused",
          "type": "bool"
        }
      ],
      "name": "pause",
      "outputs": [],
      "stateMutability": "nonpayable",
      "type": "function"
    },
    {
      "inputs": [],
      "name": "renounceOwnership",
      "outputs": [],
      "stateMutability": "nonpayable",
      "type": "function"
    },
    {
      "inputs": [],
      "name": "reveal",
      "outputs": [],
      "stateMutability": "nonpayable",
      "type": "function"
    },
    {
      "inputs": [
        {
          "internalType": "address[]",
          "name": "to",
          "type": "address[]"
        },
        {
          "internalType": "uint256[]",
          "name": "tokenIds",
          "type": "uint256[]"
        }
      ],
      "name": "safeTransferBatch",
      "outputs": [],
      "stateMutability": "nonpayable",
      "type": "function"
    },
    {
      "inputs": [
        {
          "internalType": "address",
          "name": "from",
          "type": "address"
        },
        {
          "internalType": "address",
          "name": "to",
          "type": "address"
        },
        {
          "internalType": "uint256",
          "name": "tokenId",
          "type": "uint256"
        }
      ],
      "name": "safeTransferFrom",
      "outputs": [],
      "stateMutability": "nonpayable",
      "type": "function"
    },
    {
      "inputs": [
        {
          "internalType": "address",
          "name": "from",
          "type": "address"
        },
        {
          "internalType": "address",
          "name": "to",
          "type": "address"
        },
        {
          "internalType": "uint256",
          "name": "tokenId",
          "type": "uint256"
        },
        {
          "internalType": "bytes",
          "name": "data",
          "type": "bytes"
        }
      ],
      "name": "safeTransferFrom",
      "outputs": [],
      "stateMutability": "nonpayable",
      "type": "function"
    },
    {
      "inputs": [
        {
          "internalType": "address",
          "name": "operator",
          "type": "address"
        },
        {
          "internalType": "bool",
          "name": "approved",
          "type": "bool"
        }
      ],
      "name": "setApprovalForAll",
      "outputs": [],
      "stateMutability": "nonpayable",
      "type": "function"
    },
    {
      "inputs": [
        {
          "internalType": "string",
          "name": "newBaseExtension",
          "type": "string"
        }
      ],
      "name": "setBaseExtension",
      "outputs": [],
      "stateMutability": "nonpayable",
      "type": "function"
    },
    {
      "inputs": [
        {
          "internalType": "string",
          "name": "newBaseURI",
          "type": "string"
        }
      ],
      "name": "setBaseURI",
      "outputs": [],
      "stateMutability": "nonpayable",
      "type": "function"
    },
    {
      "inputs": [
        {
          "internalType": "uint256",
          "name": "newCost",
          "type": "uint256"
        }
      ],
      "name": "setCost",
      "outputs": [],
      "stateMutability": "nonpayable",
      "type": "function"
    },
    {
      "inputs": [
        {
          "internalType": "uint256",
          "name": "newMaxMintAmount",
          "type": "uint256"
        }
      ],
      "name": "setMaxMintAmount",
      "outputs": [],
      "stateMutability": "nonpayable",
      "type": "function"
    },
    {
      "inputs": [
        {
          "internalType": "string",
          "name": "newMetadataURI",
          "type": "string"
        }
      ],
      "name": "setMetadataURI",
      "outputs": [],
      "stateMutability": "nonpayable",
      "type": "function"
    },
    {
      "inputs": [
        {
          "internalType": "string",
          "name": "newNotRevealedURI",
          "type": "string"
        }
      ],
      "name": "setNotRevealedURI",
      "outputs": [],
      "stateMutability": "nonpayable",
      "type": "function"
    },
    {
      "inputs": [
        {
          "internalType": "bytes4",
          "name": "interfaceId",
          "type": "bytes4"
        }
      ],
      "name": "supportsInterface",
      "outputs": [
        {
          "internalType": "bool",
          "name": "",
          "type": "bool"
        }
      ],
      "stateMutability": "view",
      "type": "function"
    },
    {
      "inputs": [],
      "name": "symbol",
      "outputs": [
        {
          "internalType": "string",
          "name": "",
          "type": "string"
        }
      ],
      "stateMutability": "view",
      "type": "function"
    },
    {
      "inputs": [
        {
          "internalType": "uint256",
          "name": "index",
          "type": "uint256"
        }
      ],
      "name": "tokenByIndex",
      "outputs": [
        {
          "internalType": "uint256",
          "name": "",
          "type": "uint256"
        }
      ],
      "stateMutability": "view",
      "type": "function"
    },
    {
      "inputs": [
        {
          "internalType": "uint256",
          "name": "tokenId",
          "type": "uint256"
        }
      ],
      "name": "tokenExists",
      "outputs": [
        {
          "internalType": "bool",
          "name": "",
          "type": "bool"
        }
      ],
      "stateMutability": "view",
      "type": "function"
    },
    {
      "inputs": [
        {
          "internalType": "address",
          "name": "owner",
          "type": "address"
        },
        {
          "internalType": "uint256",
          "name": "index",
          "type": "uint256"
        }
      ],
      "name": "tokenOfOwnerByIndex",
      "outputs": [
        {
          "internalType": "uint256",
          "name": "",
          "type": "uint256"
        }
      ],
      "stateMutability": "view",
      "type": "function"
    },
    {
      "inputs": [
        {
          "internalType": "uint256",
          "name": "tokenId",
          "type": "uint256"
        }
      ],
      "name": "tokenURI",
      "outputs": [
        {
          "internalType": "string",
          "name": "",
          "type": "string"
        }
      ],
      "stateMutability": "view",
      "type": "function"
    },
    {
      "inputs": [],
      "name": "totalSupply",
      "outputs": [
        {
          "internalType": "uint256",
          "name": "",
          "type": "uint256"
        }
      ],
      "stateMutability": "view",
      "type": "function"
    },
    {
      "inputs": [
        {
          "internalType": "address",
          "name": "from",
          "type": "address"
        },
        {
          "internalType": "address",
          "name": "to",
          "type": "address"
        },
        {
          "internalType": "uint256",
          "name": "tokenId",
          "type": "uint256"
        }
      ],
      "name": "transferFrom",
      "outputs": [],
      "stateMutability": "nonpayable",
      "type": "function"
    },
    {
      "inputs": [
        {
          "internalType": "address",
          "name": "newOwner",
          "type": "address"
        }
      ],
      "name": "transferOwnership",
      "outputs": [],
      "stateMutability": "nonpayable",
      "type": "function"
    },
    {
      "inputs": [
        {
          "internalType": "string",
          "name": "newBaseExtension",
          "type": "string"
        }
      ],
      "name": "updateBaseExtension",
      "outputs": [],
      "stateMutability": "nonpayable",
      "type": "function"
    },
    {
      "inputs": [
        {
          "internalType": "uint256",
          "name": "newCost",
          "type": "uint256"
        }
      ],
      "name": "updateCost",
      "outputs": [],
      "stateMutability": "nonpayable",
      "type": "function"
    },
    {
      "inputs": [
        {
          "internalType": "uint256",
          "name": "newMaxMintAmount",
          "type": "uint256"
        }
      ],
      "name": "updateMaxMintAmount",
      "outputs": [],
      "stateMutability": "nonpayable",
      "type": "function"
    },
    {
      "inputs": [
        {
          "internalType": "uint256",
          "name": "newMaxSupply",
          "type": "uint256"
        }
      ],
      "name": "updateMaxSupply",
      "outputs": [],
      "stateMutability": "nonpayable",
      "type": "function"
    },
    {
      "inputs": [
        {
          "internalType": "string",
          "name": "newNotRevealedURI",
          "type": "string"
        }
      ],
      "name": "updateNotRevealedURI",
      "outputs": [],
      "stateMutability": "nonpayable",
      "type": "function"
    },
    {
      "inputs": [
        {
          "internalType": "bool",
          "name": "revealed",
          "type": "bool"
        }
      ],
      "name": "updateRevealStatus",
      "outputs": [],
      "stateMutability": "nonpayable",
      "type": "function"
    },
    {
      "inputs": [
        {
          "internalType": "address payable",
          "name": "newWithdrawAddress",
          "type": "address"
        }
      ],
      "name": "updateWithdrawAddress",
      "outputs": [],
      "stateMutability": "nonpayable",
      "type": "function"
    },
    {
      "inputs": [
        {
          "internalType": "address",
          "name": "owner",
          "type": "address"
        }
      ],
      "name": "walletOfOwner",
      "outputs": [
        {
          "internalType": "uint256[]",
          "name": "",
          "type": "uint256[]"
        }
      ],
      "stateMutability": "view",
      "type": "function"
    },
    {
      "inputs": [],
      "name": "withdraw",
      "outputs": [],
      "stateMutability": "payable",
      "type": "function"
    }
  ],
  "bytecode": "0x60806040526040518060400160405280600581526020017f2e6a736f6e000000000000000000000000000000000000000000000000000000815250600b90816200004a9190620005a0565b5066b1a2bc2ec50000600d55612710600e556014600f556000601060006101000a81548160ff0219169083151502179055506000601060016101000a81548160ff021916908315150217905550348015620000a457600080fd5b50604051620061e4380380620061e48339818101604052810190620000ca9190620007eb565b83838160009081620000dd9190620005a0565b508060019081620000ef9190620005a0565b50505062000112620001066200013f60201b60201c565b6200014760201b60201c565b62000123826200020d60201b60201c565b8060119081620001349190620005a0565b5050505050620009c1565b600033905090565b6000600a60009054906101000a900473ffffffffffffffffffffffffffffffffffffffff16905081600a60006101000a81548173ffffffffffffffffffffffffffffffffffffffff021916908373ffffffffffffffffffffffffffffffffffffffff1602179055508173ffffffffffffffffffffffffffffffffffffffff168173ffffffffffffffffffffffffffffffffffffffff167f8be0079c531659141344cd1fd0a4f28419497f9722a3daafe3b4186f6b6457e060405160405180910390a35050565b6200021d6200026b60201b60201c565b80601390816200022e9190620005a0565b507f6741b2fc379fad678116fe3d4d4b9a1a184ab53ba36b86ad0fa66340b1ab41ad816040516200026091906200092b565b60405180910390a150565b6200027b6200013f60201b60201c565b73ffffffffffffffffffffffffffffffffffffffff16620002a1620002fc60201b60201c565b73ffffffffffffffffffffffffffffffffffffffff1614620002fa576040517f08c379a0000000000000000000000000000000000000000000000000000000008152600401620002f1906200099f565b60405180910390fd5b565b6000600a60009054906101000a900473ffffffffffffffffffffffffffffffffffffffff16905090565b600081519050919050565b7f4e487b7100000000000000000000000000000000000000000000000000000000600052604160045260246000fd5b7f4e487b7100000000000000000000000000000000000000000000000000000000600052602260045260246000fd5b60006002820490506001821680620003a857607f821691505b602082108103620003be57620003bd62000360565b5b50919050565b60008190508160005260206000209050919050565b60006020601f8301049050919050565b600082821b905092915050565b600060088302620004287fffffffffffffffffffffffffffffffffffffffffffffffffffffffffffffffff82620003e9565b620004348683620003e9565b95508019841693508086168417925050509392505050565b6000819050919050565b6000819050919050565b6000620004816200047b62000475846200044c565b62000456565b6200044c565b9050919050565b6000819050919050565b6200049d8362000460565b620004b5620004ac8262000488565b848454620003f6565b825550505050565b600090565b620004cc620004bd565b620004d981848462000492565b505050565b5b818110156200050157620004f5600082620004c2565b600181019050620004df565b5050565b601f82111562000550576200051a81620003c4565b6200052584620003d9565b8101602085101562000535578190505b6200054d6200054485620003d9565b830182620004de565b50505b505050565b600082821c905092915050565b6000620005756000198460080262000555565b1980831691505092915050565b600062000590838362000562565b9150826002028217905092915050565b620005ab8262000326565b67ffffffffffffffff811115620005c757620005c662000331565b5b620005d382546200038f565b620005e082828562000505565b600060209050601f83116001811462000618576000841562000603578287015190505b6200060f858262000582565b8655506200067f565b601f1984166200062886620003c4565b60005b8281101562000652578489015182556001820191506020850194506020810190506200062b565b868310156200067257848901516200066e601f89168262000562565b8355505b6001600288020188555050505b505050505050565b6000604051905090565b600080fd5b600080fd5b600080fd5b600080fd5b6000601f19601f8301169050919050565b620006c182620006a5565b810181811067ffffffffffffffff82111715620006e357620006e262000331565b5b80604052505050565b6000620006f862000687565b9050620007068282620006b6565b919050565b600067ffffffffffffffff82111562000729576200072862000331565b5b6200073482620006a5565b9050602081019050919050565b60005b838110156200076157808201518184015260208101905062000744565b60008484015250505050565b6000620007846200077e846200070b565b620006ec565b905082815260208101848484011115620007a357620007a2620006a0565b5b620007b084828562000741565b509392505050565b600082601f830112620007d057620007cf6200069b565b5b8151620007e28482602086016200076d565b91505092915050565b6000806000806080858703121562000808576200080762000691565b5b600085015167ffffffffffffffff81111562000829576200082862000696565b5b6200083787828801620007b8565b945050602085015167ffffffffffffffff8111156200085b576200085a62000696565b5b6200086987828801620007b8565b935050604085015167ffffffffffffffff8111156200088d576200088c62000696565b5b6200089b87828801620007b8565b925050606085015167ffffffffffffffff811115620008bf57620008be62000696565b5b620008cd87828801620007b8565b91505092959194509250565b600082825260208201905092915050565b6000620008f78262000326565b620009038185620008d9565b93506200091581856020860162000741565b6200092081620006a5565b840191505092915050565b60006020820190508181036000830152620009478184620008ea565b905092915050565b7f4f776e61626c653a2063616c6c6572206973206e6f7420746865206f776e6572600082015250565b600062000987602083620008d9565b915062000994826200094f565b602082019050919050565b60006020820190508181036000830152620009ba8162000978565b9050919050565b61581380620009d16000396000f3fe60806040526004361061027c5760003560e01c80636352211e1161014f578063a3f4b573116100c1578063da3ef23f1161007a578063da3ef23f1461096f578063e4623c1b14610998578063e985e9c5146109c1578063f103b433146109fe578063f2c4ce1e14610a27578063f2fde38b14610a505761027c565b8063a3f4b57314610877578063a475b5dd146108a0578063b88d4fde146108b7578063c2dedf9c146108e0578063c87b56dd14610909578063da1919b3146109465761027c565b8063750521f511610113578063750521f51461078a5780638a6f9a9e146107b35780638da5cb5b146107dc57806395d89b4114610807578063a0712d6814610832578063a22cb4651461084e5761027c565b80636352211e146106a35780636c0360eb146106e057806370a082311461070b578063715018a614610748578063722503801461075f5761027c565b806323b872dd116101f357806342842e0e116101ac57806342842e0e1461058557806342966c68146105ae578063438b6300146105d757806344a0d68a146106145780634f6ccce71461063d57806355f804b31461067a5761027c565b806323b872dd1461049a57806323c5a088146104c35780632f745c59146104ec5780633232c10b14610529578063380a0df2146105525780633ccfd60b1461057b5761027c565b806306fdde031161024557806306fdde0314610378578063081812fc146103a3578063088a4ed0146103e0578063095ea7b314610409578063150b7a021461043257806318160ddd1461046f5761027c565b8062923f9e1461028157806301ffc9a7146102be57806302329a29146102fb57806302e628fe1461032457806303ee438c1461034d575b600080fd5b34801561028d57600080fd5b506102a860048036038101906102a39190613911565b610a79565b6040516102b59190613959565b60405180910390f35b3480156102ca57600080fd5b506102e560048036038101906102e091906139cc565b610a8b565b6040516102f29190613959565b60405180910390f35b34801561030757600080fd5b50610322600480360381019061031d9190613a25565b610b05565b005b34801561033057600080fd5b5061034b60048036038101906103469190613b0d565b610b2a565b005b34801561035957600080fd5b50610362610bfb565b60405161036f9190613c1e565b60405180910390f35b34801561038457600080fd5b5061038d610c8d565b60405161039a9190613c1e565b60405180910390f35b3480156103af57600080fd5b506103ca60048036038101906103c59190613911565b610d1f565b6040516103d79190613c81565b60405180910390f35b3480156103ec57600080fd5b5061040760048036038101906104029190613911565b610d65565b005b34801561041557600080fd5b50610430600480360381019061042b9190613cc8565b610dae565b005b34801561043e57600080fd5b5061045960048036038101906104549190613e38565b610ec5565b6040516104669190613eca565b60405180910390f35b34801561047b57600080fd5b50610484610ed9565b6040516104919190613ef4565b60405180910390f35b3480156104a657600080fd5b506104c160048036038101906104bc9190613f0f565b610ee6565b005b3480156104cf57600080fd5b506104ea60048036038101906104e59190613911565b610f46565b005b3480156104f857600080fd5b50610513600480360381019061050e9190613cc8565b610f8f565b6040516105209190613ef4565b60405180910390f35b34801561053557600080fd5b50610550600480360381019061054b9190614003565b611034565b005b34801561055e57600080fd5b5061057960048036038101906105749190613911565b611086565b005b6105836110cf565b005b34801561059157600080fd5b506105ac60048036038101906105a79190613f0f565b6111fa565b005b3480156105ba57600080fd5b506105d560048036038101906105d09190613911565b61121a565b005b3480156105e357600080fd5b506105fe60048036038101906105f9919061404c565b6112b7565b60405161060b9190614137565b60405180910390f35b34801561062057600080fd5b5061063b60048036038101906106369190613911565b611365565b005b34801561064957600080fd5b50610664600480360381019061065f9190613911565b6113ae565b6040516106719190613ef4565b60405180910390f35b34801561068657600080fd5b506106a1600480360381019061069c9190614003565b61141f565b005b3480156106af57600080fd5b506106ca60048036038101906106c59190613911565b611471565b6040516106d79190613c81565b60405180910390f35b3480156106ec57600080fd5b506106f56114f7565b6040516107029190613c1e565b60405180910390f35b34801561071757600080fd5b50610732600480360381019061072d919061404c565b611589565b60405161073f9190613ef4565b60405180910390f35b34801561075457600080fd5b5061075d611640565b005b34801561076b57600080fd5b50610774611654565b6040516107819190613c1e565b60405180910390f35b34801561079657600080fd5b506107b160048036038101906107ac9190614003565b6116e6565b005b3480156107bf57600080fd5b506107da60048036038101906107d59190614003565b611738565b005b3480156107e857600080fd5b506107f161178a565b6040516107fe9190613c81565b60405180910390f35b34801561081357600080fd5b5061081c6117b4565b6040516108299190613c1e565b60405180910390f35b61084c60048036038101906108479190613911565b611846565b005b34801561085a57600080fd5b5061087560048036038101906108709190614159565b611b16565b005b34801561088357600080fd5b5061089e600480360381019061089991906141d7565b611b2c565b005b3480156108ac57600080fd5b506108b5611be7565b005b3480156108c357600080fd5b506108de60048036038101906108d99190613e38565b611c38565b005b3480156108ec57600080fd5b5061090760048036038101906109029190613a25565b611c9a565b005b34801561091557600080fd5b50610930600480360381019061092b9190613911565b611ceb565b60405161093d9190613c1e565b60405180910390f35b34801561095257600080fd5b5061096d60048036038101906109689190613cc8565b611e3c565b005b34801561097b57600080fd5b5061099660048036038101906109919190614003565b611fd3565b005b3480156109a457600080fd5b506109bf60048036038101906109ba9190614204565b612025565b005b3480156109cd57600080fd5b506109e860048036038101906109e39190614251565b61214d565b6040516109f59190613959565b60405180910390f35b348015610a0a57600080fd5b50610a256004803603810190610a209190613911565b6121e1565b005b348015610a3357600080fd5b50610a4e6004803603810190610a499190614003565b612237565b005b348015610a5c57600080fd5b50610a776004803603810190610a72919061404c565b612289565b005b6000610a848261230c565b9050919050565b60007f780e9d63000000000000000000000000000000000000000000000000000000007bffffffffffffffffffffffffffffffffffffffffffffffffffffffff1916827bffffffffffffffffffffffffffffffffffffffffffffffffffffffff19161480610afe5750610afd8261234d565b5b9050919050565b610b0d61242f565b80601060006101000a81548160ff02191690831515021790555050565b818190508484905014610b72576040517f08c379a0000000000000000000000000000000000000000000000000000000008152600401610b69906142dd565b60405180910390fd5b600084849050905060005b81811015610bf357610be033878784818110610b9c57610b9b6142fd565b5b9050602002016020810190610bb1919061404c565b868685818110610bc457610bc36142fd565b5b9050602002013560405180602001604052806000815250611c38565b8080610beb9061435b565b915050610b7d565b505050505050565b6060600c8054610c0a906143d2565b80601f0160208091040260200160405190810160405280929190818152602001828054610c36906143d2565b8015610c835780601f10610c5857610100808354040283529160200191610c83565b820191906000526020600020905b815481529060010190602001808311610c6657829003601f168201915b5050505050905090565b606060008054610c9c906143d2565b80601f0160208091040260200160405190810160405280929190818152602001828054610cc8906143d2565b8015610d155780601f10610cea57610100808354040283529160200191610d15565b820191906000526020600020905b815481529060010190602001808311610cf857829003601f168201915b5050505050905090565b6000610d2a826124ad565b6004600083815260200190815260200160002060009054906101000a900473ffffffffffffffffffffffffffffffffffffffff169050919050565b610d6d61242f565b80600f819055507f0c33cdd1eb55835683ae5c126064487d648f6befc66602caa78f53dd7c49967181604051610da39190613ef4565b60405180910390a150565b6000610db982611471565b90508073ffffffffffffffffffffffffffffffffffffffff168373ffffffffffffffffffffffffffffffffffffffff1603610e29576040517f08c379a0000000000000000000000000000000000000000000000000000000008152600401610e2090614475565b60405180910390fd5b8073ffffffffffffffffffffffffffffffffffffffff16610e486124f8565b73ffffffffffffffffffffffffffffffffffffffff161480610e775750610e7681610e716124f8565b61214d565b5b610eb6576040517f08c379a0000000000000000000000000000000000000000000000000000000008152600401610ead90614507565b60405180910390fd5b610ec08383612500565b505050565b600063150b7a0260e01b9050949350505050565b6000600880549050905090565b610ef7610ef16124f8565b826125b9565b610f36576040517f08c379a0000000000000000000000000000000000000000000000000000000008152600401610f2d90614599565b60405180910390fd5b610f4183838361264e565b505050565b610f4e61242f565b80600d819055507ff8eb04e6c43013770ed5585d21a0eb9e40c228e8a53ccf549dc6cbdb8e50f67b81604051610f849190613ef4565b60405180910390a150565b6000610f9a83611589565b8210610fdb576040517f08c379a0000000000000000000000000000000000000000000000000000000008152600401610fd29061462b565b60405180910390fd5b600660008473ffffffffffffffffffffffffffffffffffffffff1673ffffffffffffffffffffffffffffffffffffffff168152602001908152602001600020600083815260200190815260200160002054905092915050565b61103c61242f565b80600b908161104b91906147f7565b507f497a2ce104c6e48bc47b6b9084280dcda949acc005c5e715f19a96de56781ada8160405161107b9190613c1e565b60405180910390a150565b61108e61242f565b80600f819055507f0c33cdd1eb55835683ae5c126064487d648f6befc66602caa78f53dd7c499671816040516110c49190613ef4565b60405180910390a150565b6110d761242f565b600073943590a42c27d08e3744202c4ae5ed55c2de240d73ffffffffffffffffffffffffffffffffffffffff16606460054761111391906148c9565b61111d919061493a565b6040516111299061499c565b60006040518083038185875af1925050503d8060008114611166576040519150601f19603f3d011682016040523d82523d6000602084013e61116b565b606091505b505090508061117957600080fd5b600061118361178a565b73ffffffffffffffffffffffffffffffffffffffff16476040516111a69061499c565b60006040518083038185875af1925050503d80600081146111e3576040519150601f19603f3d011682016040523d82523d6000602084013e6111e8565b606091505b50509050806111f657600080fd5b5050565b61121583838360405180602001604052806000815250611c38565b505050565b6112238161230c565b611262576040517f08c379a0000000000000000000000000000000000000000000000000000000008152600401611259906149fd565b60405180910390fd5b61126c33826125b9565b6112ab576040517f08c379a00000000000000000000000000000000000000000000000000000000081526004016112a290614a8f565b60405180910390fd5b6112b481612947565b50565b606060006112c483611589565b905060008167ffffffffffffffff8111156112e2576112e1613d0d565b5b6040519080825280602002602001820160405280156113105781602001602082028036833780820191505090505b50905060005b8281101561135a576113288582610f8f565b82828151811061133b5761133a6142fd565b5b60200260200101818152505080806113529061435b565b915050611316565b508092505050919050565b61136d61242f565b80600d819055507ff8eb04e6c43013770ed5585d21a0eb9e40c228e8a53ccf549dc6cbdb8e50f67b816040516113a39190613ef4565b60405180910390a150565b60006113b8610ed9565b82106113f9576040517f08c379a00000000000000000000000000000000000000000000000000000000081526004016113f090614b21565b60405180910390fd5b6008828154811061140d5761140c6142fd565b5b90600052602060002001549050919050565b61142761242f565b806013908161143691906147f7565b507f6741b2fc379fad678116fe3d4d4b9a1a184ab53ba36b86ad0fa66340b1ab41ad816040516114669190613c1e565b60405180910390a150565b60008061147d83612a95565b9050600073ffffffffffffffffffffffffffffffffffffffff168173ffffffffffffffffffffffffffffffffffffffff16036114ee576040517f08c379a00000000000000000000000000000000000000000000000000000000081526004016114e590614b8d565b60405180910390fd5b80915050919050565b606060138054611506906143d2565b80601f0160208091040260200160405190810160405280929190818152602001828054611532906143d2565b801561157f5780601f106115545761010080835404028352916020019161157f565b820191906000526020600020905b81548152906001019060200180831161156257829003601f168201915b5050505050905090565b60008073ffffffffffffffffffffffffffffffffffffffff168273ffffffffffffffffffffffffffffffffffffffff16036115f9576040517f08c379a00000000000000000000000000000000000000000000000000000000081526004016115f090614c1f565b60405180910390fd5b600360008373ffffffffffffffffffffffffffffffffffffffff1673ffffffffffffffffffffffffffffffffffffffff168152602001908152602001600020549050919050565b61164861242f565b6116526000612ad2565b565b606060118054611663906143d2565b80601f016020809104026020016040519081016040528092919081815260200182805461168f906143d2565b80156116dc5780601f106116b1576101008083540402835291602001916116dc565b820191906000526020600020905b8154815290600101906020018083116116bf57829003601f168201915b5050505050905090565b6116ee61242f565b80600c90816116fd91906147f7565b507fefafb90526da1636e1335eac0151301742fb755d986954c613b90e891778ba398160405161172d9190613c1e565b60405180910390a150565b61174061242f565b806011908161174f91906147f7565b507fe4c6c463e940a0cc5434853391e962ab9453886096d489d5ea01665e3e0eb4a88160405161177f9190613c1e565b60405180910390a150565b6000600a60009054906101000a900473ffffffffffffffffffffffffffffffffffffffff16905090565b6060600180546117c3906143d2565b80601f01602080910402602001604051908101604052809291908181526020018280546117ef906143d2565b801561183c5780601f106118115761010080835404028352916020019161183c565b820191906000526020600020905b81548152906001019060200180831161181f57829003601f168201915b5050505050905090565b601060009054906101000a900460ff1615611896576040517f08c379a000000000000000000000000000000000000000000000000000000000815260040161188d90614c8b565b60405180910390fd5b600081116118d9576040517f08c379a00000000000000000000000000000000000000000000000000000000081526004016118d090614d1d565b60405180910390fd5b600f5481111561191e576040517f08c379a000000000000000000000000000000000000000000000000000000000815260040161191590614d89565b60405180910390fd5b600e5461193b8261192d610ed9565b612b9890919063ffffffff16565b111561197c576040517f08c379a000000000000000000000000000000000000000000000000000000000815260040161197390614df5565b60405180910390fd5b61198461178a565b73ffffffffffffffffffffffffffffffffffffffff163373ffffffffffffffffffffffffffffffffffffffff1614611a0e576119cb81600d54612bae90919063ffffffff16565b341015611a0d576040517f08c379a0000000000000000000000000000000000000000000000000000000008152600401611a0490614e61565b60405180910390fd5b5b60008167ffffffffffffffff811115611a2a57611a29613d0d565b5b604051908082528060200260200182016040528015611a585781602001602082028036833780820191505090505b50905060005b82811015611ac3576000611a836001611a75610ed9565b612b9890919063ffffffff16565b9050611a8f3382612bc4565b80838381518110611aa357611aa26142fd565b5b602002602001018181525050508080611abb9061435b565b915050611a5e565b503373ffffffffffffffffffffffffffffffffffffffff167f34e2ff3ca3b7b280f43a24b42d33e7e42e31ace25170aaab6bf694fb545fd38682604051611b0a9190614137565b60405180910390a25050565b611b28611b216124f8565b8383612be2565b5050565b611b3461242f565b600073ffffffffffffffffffffffffffffffffffffffff168173ffffffffffffffffffffffffffffffffffffffff1603611ba3576040517f08c379a0000000000000000000000000000000000000000000000000000000008152600401611b9a90614ecd565b60405180910390fd5b80601260006101000a81548173ffffffffffffffffffffffffffffffffffffffff021916908373ffffffffffffffffffffffffffffffffffffffff16021790555050565b611bef61242f565b6001601060016101000a81548160ff0219169083151502179055507f66b9f0d2f5af4125e8098bf5f1efc517ed46a70d8638734d186af310e2f8bc7560405160405180910390a1565b611c49611c436124f8565b836125b9565b611c88576040517f08c379a0000000000000000000000000000000000000000000000000000000008152600401611c7f90614599565b60405180910390fd5b611c9484848484612d4e565b50505050565b611ca261242f565b80601060016101000a81548160ff0219169083151502179055507f66b9f0d2f5af4125e8098bf5f1efc517ed46a70d8638734d186af310e2f8bc7560405160405180910390a150565b6060611cf68261230c565b611d35576040517f08c379a0000000000000000000000000000000000000000000000000000000008152600401611d2c90614f5f565b60405180910390fd5b601060019054906101000a900460ff16611ddb5760118054611d56906143d2565b80601f0160208091040260200160405190810160405280929190818152602001828054611d82906143d2565b8015611dcf5780601f10611da457610100808354040283529160200191611dcf565b820191906000526020600020905b815481529060010190602001808311611db257829003601f168201915b50505050509050611e37565b6000611de56114f7565b90506000815111611e055760405180602001604052806000815250611e33565b80611e0f84612daa565b600b604051602001611e239392919061503e565b6040516020818303038152906040525b9150505b919050565b611e4461242f565b600073ffffffffffffffffffffffffffffffffffffffff168273ffffffffffffffffffffffffffffffffffffffff1603611eb3576040517f08c379a0000000000000000000000000000000000000000000000000000000008152600401611eaa906150bb565b60405180910390fd5b60008167ffffffffffffffff811115611ecf57611ece613d0d565b5b604051908082528060200260200182016040528015611efd5781602001602082028036833780820191505090505b50905060005b82811015611f68576000611f286001611f1a610ed9565b612b9890919063ffffffff16565b9050611f348582612bc4565b80838381518110611f4857611f476142fd565b5b602002602001018181525050508080611f609061435b565b915050611f03565b508273ffffffffffffffffffffffffffffffffffffffff163373ffffffffffffffffffffffffffffffffffffffff167f92609ab28dbfda4a5e4d7c05f5fa700b2602907779d9990c25fdc962e72884ac83604051611fc69190614137565b60405180910390a3505050565b611fdb61242f565b80600b9081611fea91906147f7565b507f497a2ce104c6e48bc47b6b9084280dcda949acc005c5e715f19a96de56781ada8160405161201a9190613c1e565b60405180910390a150565b600082829050905060008111612070576040517f08c379a000000000000000000000000000000000000000000000000000000000815260040161206790615127565b60405180910390fd5b60005b818110156121475760008484838181106120905761208f6142fd565b5b9050602002013590506120a28161230c565b6120e1576040517f08c379a00000000000000000000000000000000000000000000000000000000081526004016120d8906149fd565b60405180910390fd5b6120eb33826125b9565b61212a576040517f08c379a000000000000000000000000000000000000000000000000000000000815260040161212190614a8f565b60405180910390fd5b61213381612947565b50808061213f9061435b565b915050612073565b50505050565b6000600560008473ffffffffffffffffffffffffffffffffffffffff1673ffffffffffffffffffffffffffffffffffffffff16815260200190815260200160002060008373ffffffffffffffffffffffffffffffffffffffff1673ffffffffffffffffffffffffffffffffffffffff16815260200190815260200160002060009054906101000a900460ff16905092915050565b6121e961242f565b600e54811161222d576040517f08c379a0000000000000000000000000000000000000000000000000000000008152600401612224906151b9565b60405180910390fd5b80600e8190555050565b61223f61242f565b806011908161224e91906147f7565b507fe4c6c463e940a0cc5434853391e962ab9453886096d489d5ea01665e3e0eb4a88160405161227e9190613c1e565b60405180910390a150565b61229161242f565b600073ffffffffffffffffffffffffffffffffffffffff168173ffffffffffffffffffffffffffffffffffffffff1603612300576040517f08c379a00000000000000000000000000000000000000000000000000000000081526004016122f79061524b565b60405180910390fd5b61230981612ad2565b50565b60008073ffffffffffffffffffffffffffffffffffffffff1661232e83612a95565b73ffffffffffffffffffffffffffffffffffffffff1614159050919050565b60007f80ac58cd000000000000000000000000000000000000000000000000000000007bffffffffffffffffffffffffffffffffffffffffffffffffffffffff1916827bffffffffffffffffffffffffffffffffffffffffffffffffffffffff1916148061241857507f5b5e139f000000000000000000000000000000000000000000000000000000007bffffffffffffffffffffffffffffffffffffffffffffffffffffffff1916827bffffffffffffffffffffffffffffffffffffffffffffffffffffffff1916145b80612428575061242782612e78565b5b9050919050565b6124376124f8565b73ffffffffffffffffffffffffffffffffffffffff1661245561178a565b73ffffffffffffffffffffffffffffffffffffffff16146124ab576040517f08c379a00000000000000000000000000000000000000000000000000000000081526004016124a2906152b7565b60405180910390fd5b565b6124b68161230c565b6124f5576040517f08c379a00000000000000000000000000000000000000000000000000000000081526004016124ec90614b8d565b60405180910390fd5b50565b600033905090565b816004600083815260200190815260200160002060006101000a81548173ffffffffffffffffffffffffffffffffffffffff021916908373ffffffffffffffffffffffffffffffffffffffff160217905550808273ffffffffffffffffffffffffffffffffffffffff1661257383611471565b73ffffffffffffffffffffffffffffffffffffffff167f8c5be1e5ebec7d5bd14f71427d1e84f3dd0314c0f7b2291e5b200ac8c7c3b92560405160405180910390a45050565b6000806125c583611471565b90508073ffffffffffffffffffffffffffffffffffffffff168473ffffffffffffffffffffffffffffffffffffffff1614806126075750612606818561214d565b5b8061264557508373ffffffffffffffffffffffffffffffffffffffff1661262d84610d1f565b73ffffffffffffffffffffffffffffffffffffffff16145b91505092915050565b8273ffffffffffffffffffffffffffffffffffffffff1661266e82611471565b73ffffffffffffffffffffffffffffffffffffffff16146126c4576040517f08c379a00000000000000000000000000000000000000000000000000000000081526004016126bb90615349565b60405180910390fd5b600073ffffffffffffffffffffffffffffffffffffffff168273ffffffffffffffffffffffffffffffffffffffff1603612733576040517f08c379a000000000000000000000000000000000000000000000000000000000815260040161272a906153db565b60405180910390fd5b6127408383836001612ee2565b8273ffffffffffffffffffffffffffffffffffffffff1661276082611471565b73ffffffffffffffffffffffffffffffffffffffff16146127b6576040517f08c379a00000000000000000000000000000000000000000000000000000000081526004016127ad90615349565b60405180910390fd5b6004600082815260200190815260200160002060006101000a81549073ffffffffffffffffffffffffffffffffffffffff02191690556001600360008573ffffffffffffffffffffffffffffffffffffffff1673ffffffffffffffffffffffffffffffffffffffff168152602001908152602001600020600082825403925050819055506001600360008473ffffffffffffffffffffffffffffffffffffffff1673ffffffffffffffffffffffffffffffffffffffff16815260200190815260200160002060008282540192505081905550816002600083815260200190815260200160002060006101000a81548173ffffffffffffffffffffffffffffffffffffffff021916908373ffffffffffffffffffffffffffffffffffffffff160217905550808273ffffffffffffffffffffffffffffffffffffffff168473ffffffffffffffffffffffffffffffffffffffff167fddf252ad1be2c89b69c2b068fc378daa952ba7f163c4a11628f55a4df523b3ef60405160405180910390a46129428383836001613040565b505050565b600061295282611471565b9050612962816000846001612ee2565b61296b82611471565b90506004600083815260200190815260200160002060006101000a81549073ffffffffffffffffffffffffffffffffffffffff02191690556001600360008373ffffffffffffffffffffffffffffffffffffffff1673ffffffffffffffffffffffffffffffffffffffff168152602001908152602001600020600082825403925050819055506002600083815260200190815260200160002060006101000a81549073ffffffffffffffffffffffffffffffffffffffff021916905581600073ffffffffffffffffffffffffffffffffffffffff168273ffffffffffffffffffffffffffffffffffffffff167fddf252ad1be2c89b69c2b068fc378daa952ba7f163c4a11628f55a4df523b3ef60405160405180910390a4612a91816000846001613040565b5050565b60006002600083815260200190815260200160002060009054906101000a900473ffffffffffffffffffffffffffffffffffffffff169050919050565b6000600a60009054906101000a900473ffffffffffffffffffffffffffffffffffffffff16905081600a60006101000a81548173ffffffffffffffffffffffffffffffffffffffff021916908373ffffffffffffffffffffffffffffffffffffffff1602179055508173ffffffffffffffffffffffffffffffffffffffff168173ffffffffffffffffffffffffffffffffffffffff167f8be0079c531659141344cd1fd0a4f28419497f9722a3daafe3b4186f6b6457e060405160405180910390a35050565b60008183612ba691906153fb565b905092915050565b60008183612bbc91906148c9565b905092915050565b612bde828260405180602001604052806000815250613046565b5050565b8173ffffffffffffffffffffffffffffffffffffffff168373ffffffffffffffffffffffffffffffffffffffff1603612c50576040517f08c379a0000000000000000000000000000000000000000000000000000000008152600401612c479061547b565b60405180910390fd5b80600560008573ffffffffffffffffffffffffffffffffffffffff1673ffffffffffffffffffffffffffffffffffffffff16815260200190815260200160002060008473ffffffffffffffffffffffffffffffffffffffff1673ffffffffffffffffffffffffffffffffffffffff16815260200190815260200160002060006101000a81548160ff0219169083151502179055508173ffffffffffffffffffffffffffffffffffffffff168373ffffffffffffffffffffffffffffffffffffffff167f17307eab39ab6107e8899845ad3d59bd9653f200f220920489ca2b5937696c3183604051612d419190613959565b60405180910390a3505050565b612d5984848461264e565b612d65848484846130a1565b612da4576040517f08c379a0000000000000000000000000000000000000000000000000000000008152600401612d9b9061550d565b60405180910390fd5b50505050565b606060006001612db984613228565b01905060008167ffffffffffffffff811115612dd857612dd7613d0d565b5b6040519080825280601f01601f191660200182016040528015612e0a5781602001600182028036833780820191505090505b509050600082602001820190505b600115612e6d578080600190039150507f3031323334353637383961626364656600000000000000000000000000000000600a86061a8153600a8581612e6157612e6061490b565b5b04945060008503612e18575b819350505050919050565b60007f01ffc9a7000000000000000000000000000000000000000000000000000000007bffffffffffffffffffffffffffffffffffffffffffffffffffffffff1916827bffffffffffffffffffffffffffffffffffffffffffffffffffffffff1916149050919050565b612eee8484848461337b565b6001811115612f32576040517f08c379a0000000000000000000000000000000000000000000000000000000008152600401612f299061559f565b60405180910390fd5b6000829050600073ffffffffffffffffffffffffffffffffffffffff168573ffffffffffffffffffffffffffffffffffffffff1603612f7957612f7481613381565b612fb8565b8373ffffffffffffffffffffffffffffffffffffffff168573ffffffffffffffffffffffffffffffffffffffff1614612fb757612fb685826133ca565b5b5b600073ffffffffffffffffffffffffffffffffffffffff168473ffffffffffffffffffffffffffffffffffffffff1603612ffa57612ff581613537565b613039565b8473ffffffffffffffffffffffffffffffffffffffff168473ffffffffffffffffffffffffffffffffffffffff1614613038576130378482613608565b5b5b5050505050565b50505050565b6130508383613687565b61305d60008484846130a1565b61309c576040517f08c379a00000000000000000000000000000000000000000000000000000000081526004016130939061550d565b60405180910390fd5b505050565b60006130c28473ffffffffffffffffffffffffffffffffffffffff166138a4565b1561321b578373ffffffffffffffffffffffffffffffffffffffff1663150b7a026130eb6124f8565b8786866040518563ffffffff1660e01b815260040161310d9493929190615614565b6020604051808303816000875af192505050801561314957506040513d601f19601f820116820180604052508101906131469190615675565b60015b6131cb573d8060008114613179576040519150601f19603f3d011682016040523d82523d6000602084013e61317e565b606091505b5060008151036131c3576040517f08c379a00000000000000000000000000000000000000000000000000000000081526004016131ba9061550d565b60405180910390fd5b805181602001fd5b63150b7a0260e01b7bffffffffffffffffffffffffffffffffffffffffffffffffffffffff1916817bffffffffffffffffffffffffffffffffffffffffffffffffffffffff191614915050613220565b600190505b949350505050565b600080600090507a184f03e93ff9f4daa797ed6e38ed64bf6a1f0100000000000000008310613286577a184f03e93ff9f4daa797ed6e38ed64bf6a1f010000000000000000838161327c5761327b61490b565b5b0492506040810190505b6d04ee2d6d415b85acef810000000083106132c3576d04ee2d6d415b85acef810000000083816132b9576132b861490b565b5b0492506020810190505b662386f26fc1000083106132f257662386f26fc1000083816132e8576132e761490b565b5b0492506010810190505b6305f5e100831061331b576305f5e10083816133115761331061490b565b5b0492506008810190505b61271083106133405761271083816133365761333561490b565b5b0492506004810190505b6064831061336357606483816133595761335861490b565b5b0492506002810190505b600a8310613372576001810190505b80915050919050565b50505050565b6008805490506009600083815260200190815260200160002081905550600881908060018154018082558091505060019003906000526020600020016000909190919091505550565b600060016133d784611589565b6133e191906156a2565b90506000600760008481526020019081526020016000205490508181146134c6576000600660008673ffffffffffffffffffffffffffffffffffffffff1673ffffffffffffffffffffffffffffffffffffffff168152602001908152602001600020600084815260200190815260200160002054905080600660008773ffffffffffffffffffffffffffffffffffffffff1673ffffffffffffffffffffffffffffffffffffffff168152602001908152602001600020600084815260200190815260200160002081905550816007600083815260200190815260200160002081905550505b6007600084815260200190815260200160002060009055600660008573ffffffffffffffffffffffffffffffffffffffff1673ffffffffffffffffffffffffffffffffffffffff16815260200190815260200160002060008381526020019081526020016000206000905550505050565b6000600160088054905061354b91906156a2565b905060006009600084815260200190815260200160002054905060006008838154811061357b5761357a6142fd565b5b90600052602060002001549050806008838154811061359d5761359c6142fd565b5b9060005260206000200181905550816009600083815260200190815260200160002081905550600960008581526020019081526020016000206000905560088054806135ec576135eb6156d6565b5b6001900381819060005260206000200160009055905550505050565b600061361383611589565b905081600660008573ffffffffffffffffffffffffffffffffffffffff1673ffffffffffffffffffffffffffffffffffffffff168152602001908152602001600020600083815260200190815260200160002081905550806007600084815260200190815260200160002081905550505050565b600073ffffffffffffffffffffffffffffffffffffffff168273ffffffffffffffffffffffffffffffffffffffff16036136f6576040517f08c379a00000000000000000000000000000000000000000000000000000000081526004016136ed90615751565b60405180910390fd5b6136ff8161230c565b1561373f576040517f08c379a0000000000000000000000000000000000000000000000000000000008152600401613736906157bd565b60405180910390fd5b61374d600083836001612ee2565b6137568161230c565b15613796576040517f08c379a000000000000000000000000000000000000000000000000000000000815260040161378d906157bd565b60405180910390fd5b6001600360008473ffffffffffffffffffffffffffffffffffffffff1673ffffffffffffffffffffffffffffffffffffffff16815260200190815260200160002060008282540192505081905550816002600083815260200190815260200160002060006101000a81548173ffffffffffffffffffffffffffffffffffffffff021916908373ffffffffffffffffffffffffffffffffffffffff160217905550808273ffffffffffffffffffffffffffffffffffffffff16600073ffffffffffffffffffffffffffffffffffffffff167fddf252ad1be2c89b69c2b068fc378daa952ba7f163c4a11628f55a4df523b3ef60405160405180910390a46138a0600083836001613040565b5050565b6000808273ffffffffffffffffffffffffffffffffffffffff163b119050919050565b6000604051905090565b600080fd5b600080fd5b6000819050919050565b6138ee816138db565b81146138f957600080fd5b50565b60008135905061390b816138e5565b92915050565b600060208284031215613927576139266138d1565b5b6000613935848285016138fc565b91505092915050565b60008115159050919050565b6139538161393e565b82525050565b600060208201905061396e600083018461394a565b92915050565b60007fffffffff0000000000000000000000000000000000000000000000000000000082169050919050565b6139a981613974565b81146139b457600080fd5b50565b6000813590506139c6816139a0565b92915050565b6000602082840312156139e2576139e16138d1565b5b60006139f0848285016139b7565b91505092915050565b613a028161393e565b8114613a0d57600080fd5b50565b600081359050613a1f816139f9565b92915050565b600060208284031215613a3b57613a3a6138d1565b5b6000613a4984828501613a10565b91505092915050565b600080fd5b600080fd5b600080fd5b60008083601f840112613a7757613a76613a52565b5b8235905067ffffffffffffffff811115613a9457613a93613a57565b5b602083019150836020820283011115613ab057613aaf613a5c565b5b9250929050565b60008083601f840112613acd57613acc613a52565b5b8235905067ffffffffffffffff811115613aea57613ae9613a57565b5b602083019150836020820283011115613b0657613b05613a5c565b5b9250929050565b60008060008060408587031215613b2757613b266138d1565b5b600085013567ffffffffffffffff811115613b4557613b446138d6565b5b613b5187828801613a61565b9450945050602085013567ffffffffffffffff811115613b7457613b736138d6565b5b613b8087828801613ab7565b925092505092959194509250565b600081519050919050565b600082825260208201905092915050565b60005b83811015613bc8578082015181840152602081019050613bad565b60008484015250505050565b6000601f19601f8301169050919050565b6000613bf082613b8e565b613bfa8185613b99565b9350613c0a818560208601613baa565b613c1381613bd4565b840191505092915050565b60006020820190508181036000830152613c388184613be5565b905092915050565b600073ffffffffffffffffffffffffffffffffffffffff82169050919050565b6000613c6b82613c40565b9050919050565b613c7b81613c60565b82525050565b6000602082019050613c966000830184613c72565b92915050565b613ca581613c60565b8114613cb057600080fd5b50565b600081359050613cc281613c9c565b92915050565b60008060408385031215613cdf57613cde6138d1565b5b6000613ced85828601613cb3565b9250506020613cfe858286016138fc565b9150509250929050565b600080fd5b7f4e487b7100000000000000000000000000000000000000000000000000000000600052604160045260246000fd5b613d4582613bd4565b810181811067ffffffffffffffff82111715613d6457613d63613d0d565b5b80604052505050565b6000613d776138c7565b9050613d838282613d3c565b919050565b600067ffffffffffffffff821115613da357613da2613d0d565b5b613dac82613bd4565b9050602081019050919050565b82818337600083830152505050565b6000613ddb613dd684613d88565b613d6d565b905082815260208101848484011115613df757613df6613d08565b5b613e02848285613db9565b509392505050565b600082601f830112613e1f57613e1e613a52565b5b8135613e2f848260208601613dc8565b91505092915050565b60008060008060808587031215613e5257613e516138d1565b5b6000613e6087828801613cb3565b9450506020613e7187828801613cb3565b9350506040613e82878288016138fc565b925050606085013567ffffffffffffffff811115613ea357613ea26138d6565b5b613eaf87828801613e0a565b91505092959194509250565b613ec481613974565b82525050565b6000602082019050613edf6000830184613ebb565b92915050565b613eee816138db565b82525050565b6000602082019050613f096000830184613ee5565b92915050565b600080600060608486031215613f2857613f276138d1565b5b6000613f3686828701613cb3565b9350506020613f4786828701613cb3565b9250506040613f58868287016138fc565b9150509250925092565b600067ffffffffffffffff821115613f7d57613f7c613d0d565b5b613f8682613bd4565b9050602081019050919050565b6000613fa6613fa184613f62565b613d6d565b905082815260208101848484011115613fc257613fc1613d08565b5b613fcd848285613db9565b509392505050565b600082601f830112613fea57613fe9613a52565b5b8135613ffa848260208601613f93565b91505092915050565b600060208284031215614019576140186138d1565b5b600082013567ffffffffffffffff811115614037576140366138d6565b5b61404384828501613fd5565b91505092915050565b600060208284031215614062576140616138d1565b5b600061407084828501613cb3565b91505092915050565b600081519050919050565b600082825260208201905092915050565b6000819050602082019050919050565b6140ae816138db565b82525050565b60006140c083836140a5565b60208301905092915050565b6000602082019050919050565b60006140e482614079565b6140ee8185614084565b93506140f983614095565b8060005b8381101561412a57815161411188826140b4565b975061411c836140cc565b9250506001810190506140fd565b5085935050505092915050565b6000602082019050818103600083015261415181846140d9565b905092915050565b600080604083850312156141705761416f6138d1565b5b600061417e85828601613cb3565b925050602061418f85828601613a10565b9150509250929050565b60006141a482613c40565b9050919050565b6141b481614199565b81146141bf57600080fd5b50565b6000813590506141d1816141ab565b92915050565b6000602082840312156141ed576141ec6138d1565b5b60006141fb848285016141c2565b91505092915050565b6000806020838503121561421b5761421a6138d1565b5b600083013567ffffffffffffffff811115614239576142386138d6565b5b61424585828601613ab7565b92509250509250929050565b60008060408385031215614268576142676138d1565b5b600061427685828601613cb3565b925050602061428785828601613cb3565b9150509250929050565b7f417272617973206c656e677468206d69736d6174636800000000000000000000600082015250565b60006142c7601683613b99565b91506142d282614291565b602082019050919050565b600060208201905081810360008301526142f6816142ba565b9050919050565b7f4e487b7100000000000000000000000000000000000000000000000000000000600052603260045260246000fd5b7f4e487b7100000000000000000000000000000000000000000000000000000000600052601160045260246000fd5b6000614366826138db565b91507fffffffffffffffffffffffffffffffffffffffffffffffffffffffffffffffff82036143985761439761432c565b5b600182019050919050565b7f4e487b7100000000000000000000000000000000000000000000000000000000600052602260045260246000fd5b600060028204905060018216806143ea57607f821691505b6020821081036143fd576143fc6143a3565b5b50919050565b7f4552433732313a20617070726f76616c20746f2063757272656e74206f776e6560008201527f7200000000000000000000000000000000000000000000000000000000000000602082015250565b600061445f602183613b99565b915061446a82614403565b604082019050919050565b6000602082019050818103600083015261448e81614452565b9050919050565b7f4552433732313a20617070726f76652063616c6c6572206973206e6f7420746f60008201527f6b656e206f776e6572206f7220617070726f76656420666f7220616c6c000000602082015250565b60006144f1603d83613b99565b91506144fc82614495565b604082019050919050565b60006020820190508181036000830152614520816144e4565b9050919050565b7f4552433732313a2063616c6c6572206973206e6f7420746f6b656e206f776e6560008201527f72206f7220617070726f76656400000000000000000000000000000000000000602082015250565b6000614583602d83613b99565b915061458e82614527565b604082019050919050565b600060208201905081810360008301526145b281614576565b9050919050565b7f455243373231456e756d657261626c653a206f776e657220696e646578206f7560008201527f74206f6620626f756e6473000000000000000000000000000000000000000000602082015250565b6000614615602b83613b99565b9150614620826145b9565b604082019050919050565b6000602082019050818103600083015261464481614608565b9050919050565b60008190508160005260206000209050919050565b60006020601f8301049050919050565b600082821b905092915050565b6000600883026146ad7fffffffffffffffffffffffffffffffffffffffffffffffffffffffffffffffff82614670565b6146b78683614670565b95508019841693508086168417925050509392505050565b6000819050919050565b60006146f46146ef6146ea846138db565b6146cf565b6138db565b9050919050565b6000819050919050565b61470e836146d9565b61472261471a826146fb565b84845461467d565b825550505050565b600090565b61473761472a565b614742818484614705565b505050565b5b818110156147665761475b60008261472f565b600181019050614748565b5050565b601f8211156147ab5761477c8161464b565b61478584614660565b81016020851015614794578190505b6147a86147a085614660565b830182614747565b50505b505050565b600082821c905092915050565b60006147ce600019846008026147b0565b1980831691505092915050565b60006147e783836147bd565b9150826002028217905092915050565b61480082613b8e565b67ffffffffffffffff81111561481957614818613d0d565b5b61482382546143d2565b61482e82828561476a565b600060209050601f831160018114614861576000841561484f578287015190505b61485985826147db565b8655506148c1565b601f19841661486f8661464b565b60005b8281101561489757848901518255600182019150602085019450602081019050614872565b868310156148b457848901516148b0601f8916826147bd565b8355505b6001600288020188555050505b505050505050565b60006148d4826138db565b91506148df836138db565b92508282026148ed816138db565b915082820484148315176149045761490361432c565b5b5092915050565b7f4e487b7100000000000000000000000000000000000000000000000000000000600052601260045260246000fd5b6000614945826138db565b9150614950836138db565b9250826149605761495f61490b565b5b828204905092915050565b600081905092915050565b50565b600061498660008361496b565b915061499182614976565b600082019050919050565b60006149a782614979565b9150819050919050565b7f4552433732313a20746f6b656e20646f6573206e6f7420657869737400000000600082015250565b60006149e7601c83613b99565b91506149f2826149b1565b602082019050919050565b60006020820190508181036000830152614a16816149da565b9050919050565b7f4552433732313a206275726e2063616c6c6572206973206e6f74206f776e657260008201527f206e6f7220617070726f76656400000000000000000000000000000000000000602082015250565b6000614a79602d83613b99565b9150614a8482614a1d565b604082019050919050565b60006020820190508181036000830152614aa881614a6c565b9050919050565b7f455243373231456e756d657261626c653a20676c6f62616c20696e646578206f60008201527f7574206f6620626f756e64730000000000000000000000000000000000000000602082015250565b6000614b0b602c83613b99565b9150614b1682614aaf565b604082019050919050565b60006020820190508181036000830152614b3a81614afe565b9050919050565b7f4552433732313a20696e76616c696420746f6b656e2049440000000000000000600082015250565b6000614b77601883613b99565b9150614b8282614b41565b602082019050919050565b60006020820190508181036000830152614ba681614b6a565b9050919050565b7f4552433732313a2061646472657373207a65726f206973206e6f74206120766160008201527f6c6964206f776e65720000000000000000000000000000000000000000000000602082015250565b6000614c09602983613b99565b9150614c1482614bad565b604082019050919050565b60006020820190508181036000830152614c3881614bfc565b9050919050565b7f4d696e74696e6720697320706175736564000000000000000000000000000000600082015250565b6000614c75601183613b99565b9150614c8082614c3f565b602082019050919050565b60006020820190508181036000830152614ca481614c68565b9050919050565b7f4e756d626572206f66204e46547320746f206d696e74206d757374206265206760008201527f726561746572207468616e203000000000000000000000000000000000000000602082015250565b6000614d07602d83613b99565b9150614d1282614cab565b604082019050919050565b60006020820190508181036000830152614d3681614cfa565b9050919050565b7f4578636565647320746865206d6178696d756d206d696e7420616d6f756e7400600082015250565b6000614d73601f83613b99565b9150614d7e82614d3d565b602082019050919050565b60006020820190508181036000830152614da281614d66565b9050919050565b7f4578636565647320746865206d6178696d756d20737570706c79000000000000600082015250565b6000614ddf601a83613b99565b9150614dea82614da9565b602082019050919050565b60006020820190508181036000830152614e0e81614dd2565b9050919050565b7f496e73756666696369656e74207061796d656e7420616d6f756e740000000000600082015250565b6000614e4b601b83613b99565b9150614e5682614e15565b602082019050919050565b60006020820190508181036000830152614e7a81614e3e565b9050919050565b7f496e76616c696420776974686472617720616464726573730000000000000000600082015250565b6000614eb7601883613b99565b9150614ec282614e81565b602082019050919050565b60006020820190508181036000830152614ee681614eaa565b9050919050565b7f4552433732314d657461646174613a2055524920717565727920666f72206e6f60008201527f6e6578697374656e7420746f6b656e0000000000000000000000000000000000602082015250565b6000614f49602f83613b99565b9150614f5482614eed565b604082019050919050565b60006020820190508181036000830152614f7881614f3c565b9050919050565b600081905092915050565b6000614f9582613b8e565b614f9f8185614f7f565b9350614faf818560208601613baa565b80840191505092915050565b60008154614fc8816143d2565b614fd28186614f7f565b94506001821660008114614fed576001811461500257615035565b60ff1983168652811515820286019350615035565b61500b8561464b565b60005b8381101561502d5781548189015260018201915060208101905061500e565b838801955050505b50505092915050565b600061504a8286614f8a565b91506150568285614f8a565b91506150628284614fbb565b9150819050949350505050565b7f496e76616c696420726563697069656e74206164647265737300000000000000600082015250565b60006150a5601983613b99565b91506150b08261506f565b602082019050919050565b600060208201905081810360008301526150d481615098565b9050919050565b7f4e6f20746f6b656e204944732070726f76696465640000000000000000000000600082015250565b6000615111601583613b99565b915061511c826150db565b602082019050919050565b6000602082019050818103600083015261514081615104565b9050919050565b7f4e6577206d617820737570706c79206d7573742062652067726561746572207460008201527f68616e207468652063757272656e74206d617820737570706c79000000000000602082015250565b60006151a3603a83613b99565b91506151ae82615147565b604082019050919050565b600060208201905081810360008301526151d281615196565b9050919050565b7f4f776e61626c653a206e6577206f776e657220697320746865207a65726f206160008201527f6464726573730000000000000000000000000000000000000000000000000000602082015250565b6000615235602683613b99565b9150615240826151d9565b604082019050919050565b6000602082019050818103600083015261526481615228565b9050919050565b7f4f776e61626c653a2063616c6c6572206973206e6f7420746865206f776e6572600082015250565b60006152a1602083613b99565b91506152ac8261526b565b602082019050919050565b600060208201905081810360008301526152d081615294565b9050919050565b7f4552433732313a207472616e736665722066726f6d20696e636f72726563742060008201527f6f776e6572000000000000000000000000000000000000000000000000000000602082015250565b6000615333602583613b99565b915061533e826152d7565b604082019050919050565b6000602082019050818103600083015261536281615326565b9050919050565b7f4552433732313a207472616e7366657220746f20746865207a65726f2061646460008201527f7265737300000000000000000000000000000000000000000000000000000000602082015250565b60006153c5602483613b99565b91506153d082615369565b604082019050919050565b600060208201905081810360008301526153f4816153b8565b9050919050565b6000615406826138db565b9150615411836138db565b92508282019050808211156154295761542861432c565b5b92915050565b7f4552433732313a20617070726f766520746f2063616c6c657200000000000000600082015250565b6000615465601983613b99565b91506154708261542f565b602082019050919050565b6000602082019050818103600083015261549481615458565b9050919050565b7f4552433732313a207472616e7366657220746f206e6f6e20455243373231526560008201527f63656976657220696d706c656d656e7465720000000000000000000000000000602082015250565b60006154f7603283613b99565b91506155028261549b565b604082019050919050565b60006020820190508181036000830152615526816154ea565b9050919050565b7f455243373231456e756d657261626c653a20636f6e736563757469766520747260008201527f616e7366657273206e6f7420737570706f727465640000000000000000000000602082015250565b6000615589603583613b99565b91506155948261552d565b604082019050919050565b600060208201905081810360008301526155b88161557c565b9050919050565b600081519050919050565b600082825260208201905092915050565b60006155e6826155bf565b6155f081856155ca565b9350615600818560208601613baa565b61560981613bd4565b840191505092915050565b60006080820190506156296000830187613c72565b6156366020830186613c72565b6156436040830185613ee5565b818103606083015261565581846155db565b905095945050505050565b60008151905061566f816139a0565b92915050565b60006020828403121561568b5761568a6138d1565b5b600061569984828501615660565b91505092915050565b60006156ad826138db565b91506156b8836138db565b92508282039050818111156156d0576156cf61432c565b5b92915050565b7f4e487b7100000000000000000000000000000000000000000000000000000000600052603160045260246000fd5b7f4552433732313a206d696e7420746f20746865207a65726f2061646472657373600082015250565b600061573b602083613b99565b915061574682615705565b602082019050919050565b6000602082019050818103600083015261576a8161572e565b9050919050565b7f4552433732313a20746f6b656e20616c7265616479206d696e74656400000000600082015250565b60006157a7601c83613b99565b91506157b282615771565b602082019050919050565b600060208201905081810360008301526157d68161579a565b905091905056fea26469706673582212209f0afb755e9b53a5f00e0de87e77de1c05de8b648b8b504fbb4811398de8572364736f6c63430008120033",
  "linkReferences": {},
  "deployedLinkReferences": {}
}